:020000040000FA
:100000007805002065010000710100007301000007
:1000100000000000000000000000000000000000E0
:10002000000000000000000000000000750100005A
:1000300000000000000000007701000079010000CE
:100040007B0100007B0100007B0100007B010000C0
:100050007B0100007B0100007B0100007B010000B0
:100060007B0100007B0100007B0100007B010000A0
:100070007B0100007B0100007B0100007B01000090
:100080007B0100007B0100007B0100007B01000080
:100090007B0100007B0100007B0100007B01000070
:1000A0007B0100007B0100007B0100007B01000060
:1000B0003504000015040000F5030000550400009D
:1000C00000F002F800F03EF80CA030C80838241800
:1000D0002D18A246671EAB4654465D46AC4201D180
:1000E00000F030F87E460F3E0FCCB6460126334274
:1000F00000D0FB1AA246AB463343184780050000E8
:10010000A0050000103A02D378C878C1FAD8520787
:1001100001D330C830C101D504680C6070470000BD
:100120000023002400250026103A01D378C1FBD813
:10013000520700D330C100D50B6070471FB51FBDFB
:1001400010B510BD00F018F91146FFF7F7FF00F0E9
:100150008CFA00F042F903B4FFF7F2FF03BC00F0A1
:1001600021FA000008488046C146804707480047FA
:10017000FEE7FEE7FEE7FEE7FEE7FEE70448054987
:10018000054A064B70470000E5040000C10000006E
:1001900078000020780500207801002078010020F8
:1001A000704700000FB4054910B503AA029800F08B
:1001B000B7F810BC08BC04B01847000004000020C9
:1001C000002203098B422CD3030A8B4211D3002354
:1001D0009C464EE003460B433CD4002243088B422E
:1001E00031D303098B421CD3030A8B4201D39446BB
:1001F0003FE0C3098B4201D3CB01C01A52418309AE
:100200008B4201D38B01C01A524143098B4201D367
:100210004B01C01A524103098B4201D30B01C01A92
:100220005241C3088B4201D3CB00C01A524183080C
:100230008B4201D38B00C01A524143088B4201D339
:100240004B00C01A5241411A00D201465241104699
:1002500070475DE0CA0F00D04942031000D340420E
:10026000534000229C4603098B422DD3030A8B4244
:1002700012D3FC22890112BA030A8B420CD38901E2
:1002800092118B4208D3890192118B4204D38901C8
:100290003AD0921100E08909C3098B4201D3CB0106
:1002A000C01A524183098B4201D38B01C01A5241BB
:1002B00043098B4201D34B01C01A524103098B42BF
:1002C00001D30B01C01A5241C3088B4201D3CB00AA
:1002D000C01A524183088B4201D38B00C01A52418D
:1002E000D9D243088B4201D34B00C01A5241411A64
:1002F00000D20146634652415B10104601D3404292
:10030000002B00D54942704763465B1000D3404242
:1003100001B50020C046C04602BD70477047704717
:10032000084B70B50D467B4400F013F80446284690
:1003300000F090F9002802D00020C04370BD204694
:1003400070BD00003303000001694A1C0261087897
:10035000704700B58FB002910021059105490193C6
:100360007944039111460490684600F024F80FB0D8
:1003700000BD0000E5FFFFFF754600F037F8AE4610
:10038000050069465346C008C000854618B020B530
:10039000FFF7F4FE60BC00274908B6460026C0C53A
:1003A000C0C5C0C5C0C5C0C5C0C5C0C5C0C5403D2D
:1003B00049008D467047F8B50646002447688068B6
:1003C00000903046F56803E00099B847641C304659
:1003D000A8470028F8D12046F8BD10B50446C0460D
:1003E000C0462046FFF7B7FE10BD0000004870472A
:1003F0001400002010B503A0FFF7D4FE032000F086
:1004000001F910BD42544E5F4420707265737365EC
:100410006421000010B503A0FFF7C4FE032000F024
:10042000F1F810BD42544E5F4C20707265737365D5
:100430006421000010B503A0FFF7B4FE032000F014
:10044000E1F810BD42544E5F5220707265737365BF
:100450006421000010B503A0FFF7A4FE032000F004
:10046000D1F810BD42544E5F5520707265737365AC
:100470006421000001617047F0B50446059D002627
:10048000002A01D001200643002B01D002200643A0
:10049000002D01D0042006430698002801D0082032
:1004A00006430798002801D010200643089800282A
:1004B00001D0202006430020A0602161A660606872
:1004C0000C273840002801D00120F0BD0020FCE7B7
:1004D000C206D20E01219140014A1160704700000E
:1004E00000E100E01FB50B480B490860E12149021B
:1004F00009480068FFF764FE044600200090019060
:10050000029001231A46214603900448FFF7B4FFE6
:100510001FBD0000006CDC02100000200040004005
:1005200000BF04494968C907C90F0029F9D1014929
:10053000086070470040004010B518491848FFF7A0
:1005400099FF7D242401012015494860204600F0D0
:1005500059F8022012494860204600F053F8042060
:100560000F494860204600F04DF808200C494860CB
:10057000204600F047F8102009494860204600F066
:1005800041F8202006494860204600F03BF8402012
:1005900003494860204600F035F810BDFFFF000019
:1005A0000000014000BFFEE710B51C20FFF790FFE0
:1005B0001D20FFF78DFF1E20FFF78AFF1F20FFF78A
:1005C00087FF10BD10B50A48006904210843084997
:1005D0000861084908480068FFF7F2FD07490870FC
:1005E000084600787D21C90048430549088010BDB0
:1005F00000E000E040420F0010000020000000205A
:10060000020000200146114A12884A43104B5A61E9
:1006100000229A611A46126901231A430C4B1A618F
:1006200000BF0B4A1069C207D20F002A04D0012272
:1006300012040240002AF4D0054A126952085200FE
:10064000034B1A6100229A617047000002000020EB
:1006500000E000E001460020C043704770B504464A
:100660000D46E0B2FFF75CFF70BDFFF7ABFFFFF791
:100670009BFF01E0FFF760FFFCE700009C06000025
:10068000000000201400000004010000B00600007B
:10069000140000206405000020010000000000009C
:1006A0000000000000000000006CDC02006CDC02B6
:04000005000000C136
:00000001FF
